{
  "_format": "hh-sol-artifact-1",
  "contractName": "MatesRaffle",
  "sourceName": "contracts/MatesRaffle.sol",
  "abi": [
    {
      "inputs": [],
      "stateMutability": "nonpayable",
      "type": "constructor"
    },
    {
      "inputs": [
        {
          "internalType": "address",
          "name": "have",
          "type": "address"
        },
        {
          "internalType": "address",
          "name": "want",
          "type": "address"
        }
      ],
      "name": "OnlyCoordinatorCanFulfill",
      "type": "error"
    },
    {
      "inputs": [
        {
          "internalType": "address",
          "name": "have",
          "type": "address"
        },
        {
          "internalType": "address",
          "name": "owner",
          "type": "address"
        },
        {
          "internalType": "address",
          "name": "coordinator",
          "type": "address"
        }
      ],
      "name": "OnlyOwnerOrCoordinator",
      "type": "error"
    },
    {
      "inputs": [],
      "name": "ZeroAddress",
      "type": "error"
    },
    {
      "anonymous": false,
      "inputs": [
        {
          "indexed": true,
          "internalType": "address",
          "name": "account",
          "type": "address"
        },
        {
          "indexed": true,
          "internalType": "address",
          "name": "operator",
          "type": "address"
        },
        {
          "indexed": false,
          "internalType": "bool",
          "name": "approved",
          "type": "bool"
        }
      ],
      "name": "ApprovalForAll",
      "type": "event"
    },
    {
      "anonymous": false,
      "inputs": [
        {
          "indexed": false,
          "internalType": "address",
          "name": "vrfCoordinator",
          "type": "address"
        }
      ],
      "name": "CoordinatorSet",
      "type": "event"
    },
    {
      "anonymous": false,
      "inputs": [
        {
          "indexed": true,
          "internalType": "address",
          "name": "from",
          "type": "address"
        },
        {
          "indexed": true,
          "internalType": "address",
          "name": "to",
          "type": "address"
        }
      ],
      "name": "OwnershipTransferRequested",
      "type": "event"
    },
    {
      "anonymous": false,
      "inputs": [
        {
          "indexed": true,
          "internalType": "address",
          "name": "from",
          "type": "address"
        },
        {
          "indexed": true,
          "internalType": "address",
          "name": "to",
          "type": "address"
        }
      ],
      "name": "OwnershipTransferred",
      "type": "event"
    },
    {
      "anonymous": false,
      "inputs": [
        {
          "indexed": true,
          "internalType": "uint64",
          "name": "requestId",
          "type": "uint64"
        },
        {
          "indexed": true,
          "internalType": "uint256",
          "name": "randomValue",
          "type": "uint256"
        },
        {
          "indexed": false,
          "internalType": "address",
          "name": "provider",
          "type": "address"
        }
      ],
      "name": "PythReceived",
      "type": "event"
    },
    {
      "anonymous": false,
      "inputs": [
        {
          "indexed": true,
          "internalType": "uint64",
          "name": "requestId",
          "type": "uint64"
        }
      ],
      "name": "PythRequested",
      "type": "event"
    },
    {
      "anonymous": false,
      "inputs": [
        {
          "indexed": true,
          "internalType": "bytes32",
          "name": "pubKey",
          "type": "bytes32"
        },
        {
          "components": [
            {
              "internalType": "address",
              "name": "manager",
              "type": "address"
            },
            {
              "internalType": "uint64",
              "name": "pythRequestId",
              "type": "uint64"
            },
            {
              "internalType": "bytes32",
              "name": "chainLinkRandomRequestId",
              "type": "bytes32"
            },
            {
              "internalType": "bytes",
              "name": "reveal",
              "type": "bytes"
            },
            {
              "internalType": "bool",
              "name": "open",
              "type": "bool"
            },
            {
              "internalType": "uint256",
              "name": "ticketsSold",
              "type": "uint256"
            },
            {
              "internalType": "uint64",
              "name": "prizes",
              "type": "uint64"
            }
          ],
          "indexed": true,
          "internalType": "struct MatesRaffle.Raffle",
          "name": "raffle",
          "type": "tuple"
        }
      ],
      "name": "RaffleCreated",
      "type": "event"
    },
    {
      "anonymous": false,
      "inputs": [
        {
          "indexed": true,
          "internalType": "bytes32",
          "name": "rafflePubKey",
          "type": "bytes32"
        },
        {
          "indexed": true,
          "internalType": "uint256",
          "name": "_finalRandom",
          "type": "uint256"
        }
      ],
      "name": "RandomNessReveal",
      "type": "event"
    },
    {
      "anonymous": false,
      "inputs": [
        {
          "indexed": false,
          "internalType": "uint256",
          "name": "requestId",
          "type": "uint256"
        },
        {
          "indexed": false,
          "internalType": "uint256[]",
          "name": "randomWords",
          "type": "uint256[]"
        }
      ],
      "name": "RequestFulfilled",
      "type": "event"
    },
    {
      "anonymous": false,
      "inputs": [
        {
          "indexed": false,
          "internalType": "uint256",
          "name": "requestId",
          "type": "uint256"
        },
        {
          "indexed": false,
          "internalType": "uint32",
          "name": "numWords",
          "type": "uint32"
        }
      ],
      "name": "RequestSent",
      "type": "event"
    },
    {
      "anonymous": false,
      "inputs": [
        {
          "indexed": true,
          "internalType": "bytes32",
          "name": "raffle",
          "type": "bytes32"
        },
        {
          "indexed": true,
          "internalType": "address",
          "name": "owner",
          "type": "address"
        },
        {
          "indexed": false,
          "internalType": "uint256",
          "name": "amount",
          "type": "uint256"
        }
      ],
      "name": "TicketBought",
      "type": "event"
    },
    {
      "anonymous": false,
      "inputs": [
        {
          "indexed": true,
          "internalType": "address",
          "name": "operator",
          "type": "address"
        },
        {
          "indexed": true,
          "internalType": "address",
          "name": "from",
          "type": "address"
        },
        {
          "indexed": true,
          "internalType": "address",
          "name": "to",
          "type": "address"
        },
        {
          "indexed": false,
          "internalType": "uint256[]",
          "name": "ids",
          "type": "uint256[]"
        },
        {
          "indexed": false,
          "internalType": "uint256[]",
          "name": "values",
          "type": "uint256[]"
        }
      ],
      "name": "TransferBatch",
      "type": "event"
    },
    {
      "anonymous": false,
      "inputs": [
        {
          "indexed": true,
          "internalType": "address",
          "name": "operator",
          "type": "address"
        },
        {
          "indexed": true,
          "internalType": "address",
          "name": "from",
          "type": "address"
        },
        {
          "indexed": true,
          "internalType": "address",
          "name": "to",
          "type": "address"
        },
        {
          "indexed": false,
          "internalType": "uint256",
          "name": "id",
          "type": "uint256"
        },
        {
          "indexed": false,
          "internalType": "uint256",
          "name": "value",
          "type": "uint256"
        }
      ],
      "name": "TransferSingle",
      "type": "event"
    },
    {
      "anonymous": false,
      "inputs": [
        {
          "indexed": false,
          "internalType": "string",
          "name": "value",
          "type": "string"
        },
        {
          "indexed": true,
          "internalType": "uint256",
          "name": "id",
          "type": "uint256"
        }
      ],
      "name": "URI",
      "type": "event"
    },
    {
      "inputs": [
        {
          "internalType": "uint64",
          "name": "sequence",
          "type": "uint64"
        },
        {
          "internalType": "address",
          "name": "provider",
          "type": "address"
        },
        {
          "internalType": "bytes32",
          "name": "randomNumber",
          "type": "bytes32"
        }
      ],
      "name": "_entropyCallback",
      "outputs": [],
      "stateMutability": "nonpayable",
      "type": "function"
    },
    {
      "inputs": [],
      "name": "acceptOwnership",
      "outputs": [],
      "stateMutability": "nonpayable",
      "type": "function"
    },
    {
      "inputs": [
        {
          "internalType": "address",
          "name": "account",
          "type": "address"
        },
        {
          "internalType": "uint256",
          "name": "id",
          "type": "uint256"
        }
      ],
      "name": "balanceOf",
      "outputs": [
        {
          "internalType": "uint256",
          "name": "",
          "type": "uint256"
        }
      ],
      "stateMutability": "view",
      "type": "function"
    },
    {
      "inputs": [
        {
          "internalType": "address[]",
          "name": "accounts",
          "type": "address[]"
        },
        {
          "internalType": "uint256[]",
          "name": "ids",
          "type": "uint256[]"
        }
      ],
      "name": "balanceOfBatch",
      "outputs": [
        {
          "internalType": "uint256[]",
          "name": "",
          "type": "uint256[]"
        }
      ],
      "stateMutability": "view",
      "type": "function"
    },
    {
      "inputs": [
        {
          "internalType": "bytes32",
          "name": "_pubKey",
          "type": "bytes32"
        }
      ],
      "name": "beginDrawRaffle",
      "outputs": [],
      "stateMutability": "payable",
      "type": "function"
    },
    {
      "inputs": [
        {
          "internalType": "bytes32",
          "name": "_pubKey",
          "type": "bytes32"
        },
        {
          "internalType": "address",
          "name": "owner",
          "type": "address"
        },
        {
          "internalType": "uint256",
          "name": "amount",
          "type": "uint256"
        }
      ],
      "name": "buyTickets",
      "outputs": [],
      "stateMutability": "nonpayable",
      "type": "function"
    },
    {
      "inputs": [],
      "name": "callbackGasLimit",
      "outputs": [
        {
          "internalType": "uint32",
          "name": "",
          "type": "uint32"
        }
      ],
      "stateMutability": "view",
      "type": "function"
    },
    {
      "inputs": [
        {
          "internalType": "uint256",
          "name": "requestId",
          "type": "uint256"
        }
      ],
      "name": "chainLinkRequests",
      "outputs": [
        {
          "internalType": "bool",
          "name": "fulfilled",
          "type": "bool"
        },
        {
          "internalType": "bool",
          "name": "exists",
          "type": "bool"
        }
      ],
      "stateMutability": "view",
      "type": "function"
    },
    {
      "inputs": [
        {
          "internalType": "bytes32",
          "name": "_pubKey",
          "type": "bytes32"
        },
        {
          "internalType": "uint64",
          "name": "_rafflePrizes",
          "type": "uint64"
        },
        {
          "internalType": "bool",
          "name": "_raffleOpen",
          "type": "bool"
        }
      ],
      "name": "createRaffle",
      "outputs": [],
      "stateMutability": "nonpayable",
      "type": "function"
    },
    {
      "inputs": [],
      "name": "entropy",
      "outputs": [
        {
          "internalType": "contract IEntropy",
          "name": "",
          "type": "address"
        }
      ],
      "stateMutability": "view",
      "type": "function"
    },
    {
      "inputs": [],
      "name": "getPythFee",
      "outputs": [
        {
          "internalType": "uint128",
          "name": "",
          "type": "uint128"
        }
      ],
      "stateMutability": "view",
      "type": "function"
    },
    {
      "inputs": [
        {
          "internalType": "bytes32",
          "name": "_pubKey",
          "type": "bytes32"
        }
      ],
      "name": "getRaffleRandomness",
      "outputs": [
        {
          "internalType": "uint256",
          "name": "",
          "type": "uint256"
        }
      ],
      "stateMutability": "view",
      "type": "function"
    },
    {
      "inputs": [
        {
          "internalType": "uint256",
          "name": "_requestId",
          "type": "uint256"
        }
      ],
      "name": "getRequestStatus",
      "outputs": [
        {
          "internalType": "bool",
          "name": "fulfilled",
          "type": "bool"
        },
        {
          "internalType": "uint256[]",
          "name": "randomWords",
          "type": "uint256[]"
        }
      ],
      "stateMutability": "view",
      "type": "function"
    },
    {
      "inputs": [
        {
          "internalType": "address",
          "name": "account",
          "type": "address"
        },
        {
          "internalType": "address",
          "name": "operator",
          "type": "address"
        }
      ],
      "name": "isApprovedForAll",
      "outputs": [
        {
          "internalType": "bool",
          "name": "",
          "type": "bool"
        }
      ],
      "stateMutability": "view",
      "type": "function"
    },
    {
      "inputs": [],
      "name": "keyHash",
      "outputs": [
        {
          "internalType": "bytes32",
          "name": "",
          "type": "bytes32"
        }
      ],
      "stateMutability": "view",
      "type": "function"
    },
    {
      "inputs": [],
      "name": "lastRequestId",
      "outputs": [
        {
          "internalType": "uint256",
          "name": "",
          "type": "uint256"
        }
      ],
      "stateMutability": "view",
      "type": "function"
    },
    {
      "inputs": [],
      "name": "numWords",
      "outputs": [
        {
          "internalType": "uint32",
          "name": "",
          "type": "uint32"
        }
      ],
      "stateMutability": "view",
      "type": "function"
    },
    {
      "inputs": [],
      "name": "owner",
      "outputs": [
        {
          "internalType": "address",
          "name": "",
          "type": "address"
        }
      ],
      "stateMutability": "view",
      "type": "function"
    },
    {
      "inputs": [],
      "name": "provider",
      "outputs": [
        {
          "internalType": "address",
          "name": "",
          "type": "address"
        }
      ],
      "stateMutability": "view",
      "type": "function"
    },
    {
      "inputs": [
        {
          "internalType": "uint64",
          "name": "_id",
          "type": "uint64"
        }
      ],
      "name": "pythRequests",
      "outputs": [
        {
          "internalType": "uint256",
          "name": "_randomValue",
          "type": "uint256"
        }
      ],
      "stateMutability": "view",
      "type": "function"
    },
    {
      "inputs": [
        {
          "internalType": "bytes32",
          "name": "rafflePubKey",
          "type": "bytes32"
        }
      ],
      "name": "raffles",
      "outputs": [
        {
          "internalType": "address",
          "name": "manager",
          "type": "address"
        },
        {
          "internalType": "uint64",
          "name": "pythRequestId",
          "type": "uint64"
        },
        {
          "internalType": "bytes32",
          "name": "chainLinkRandomRequestId",
          "type": "bytes32"
        },
        {
          "internalType": "bytes",
          "name": "reveal",
          "type": "bytes"
        },
        {
          "internalType": "bool",
          "name": "open",
          "type": "bool"
        },
        {
          "internalType": "uint256",
          "name": "ticketsSold",
          "type": "uint256"
        },
        {
          "internalType": "uint64",
          "name": "prizes",
          "type": "uint64"
        }
      ],
      "stateMutability": "view",
      "type": "function"
    },
    {
      "inputs": [
        {
          "internalType": "uint256",
          "name": "requestId",
          "type": "uint256"
        },
        {
          "internalType": "uint256[]",
          "name": "randomWords",
          "type": "uint256[]"
        }
      ],
      "name": "rawFulfillRandomWords",
      "outputs": [],
      "stateMutability": "nonpayable",
      "type": "function"
    },
    {
      "inputs": [],
      "name": "requestConfirmations",
      "outputs": [
        {
          "internalType": "uint16",
          "name": "",
          "type": "uint16"
        }
      ],
      "stateMutability": "view",
      "type": "function"
    },
    {
      "inputs": [
        {
          "internalType": "uint256",
          "name": "",
          "type": "uint256"
        }
      ],
      "name": "requestIds",
      "outputs": [
        {
          "internalType": "uint256",
          "name": "",
          "type": "uint256"
        }
      ],
      "stateMutability": "view",
      "type": "function"
    },
    {
      "inputs": [
        {
          "internalType": "bytes32",
          "name": "userRandomNumber",
          "type": "bytes32"
        }
      ],
      "name": "requestPythRandomNumber",
      "outputs": [
        {
          "internalType": "uint64",
          "name": "",
          "type": "uint64"
        }
      ],
      "stateMutability": "payable",
      "type": "function"
    },
    {
      "inputs": [],
      "name": "s_subscriptionId",
      "outputs": [
        {
          "internalType": "uint256",
          "name": "",
          "type": "uint256"
        }
      ],
      "stateMutability": "view",
      "type": "function"
    },
    {
      "inputs": [],
      "name": "s_vrfCoordinator",
      "outputs": [
        {
          "internalType": "contract IVRFCoordinatorV2Plus",
          "name": "",
          "type": "address"
        }
      ],
      "stateMutability": "view",
      "type": "function"
    },
    {
      "inputs": [
        {
          "internalType": "address",
          "name": "from",
          "type": "address"
        },
        {
          "internalType": "address",
          "name": "to",
          "type": "address"
        },
        {
          "internalType": "uint256[]",
          "name": "ids",
          "type": "uint256[]"
        },
        {
          "internalType": "uint256[]",
          "name": "amounts",
          "type": "uint256[]"
        },
        {
          "internalType": "bytes",
          "name": "data",
          "type": "bytes"
        }
      ],
      "name": "safeBatchTransferFrom",
      "outputs": [],
      "stateMutability": "nonpayable",
      "type": "function"
    },
    {
      "inputs": [
        {
          "internalType": "address",
          "name": "from",
          "type": "address"
        },
        {
          "internalType": "address",
          "name": "to",
          "type": "address"
        },
        {
          "internalType": "uint256",
          "name": "id",
          "type": "uint256"
        },
        {
          "internalType": "uint256",
          "name": "amount",
          "type": "uint256"
        },
        {
          "internalType": "bytes",
          "name": "data",
          "type": "bytes"
        }
      ],
      "name": "safeTransferFrom",
      "outputs": [],
      "stateMutability": "nonpayable",
      "type": "function"
    },
    {
      "inputs": [
        {
          "internalType": "address",
          "name": "operator",
          "type": "address"
        },
        {
          "internalType": "bool",
          "name": "approved",
          "type": "bool"
        }
      ],
      "name": "setApprovalForAll",
      "outputs": [],
      "stateMutability": "nonpayable",
      "type": "function"
    },
    {
      "inputs": [
        {
          "internalType": "address",
          "name": "_vrfCoordinator",
          "type": "address"
        }
      ],
      "name": "setCoordinator",
      "outputs": [],
      "stateMutability": "nonpayable",
      "type": "function"
    },
    {
      "inputs": [
        {
          "internalType": "bytes",
          "name": "secret",
          "type": "bytes"
        }
      ],
      "name": "settleRaffle",
      "outputs": [],
      "stateMutability": "nonpayable",
      "type": "function"
    },
    {
      "inputs": [
        {
          "internalType": "bytes4",
          "name": "interfaceId",
          "type": "bytes4"
        }
      ],
      "name": "supportsInterface",
      "outputs": [
        {
          "internalType": "bool",
          "name": "",
          "type": "bool"
        }
      ],
      "stateMutability": "view",
      "type": "function"
    },
    {
      "inputs": [
        {
          "internalType": "address",
          "name": "to",
          "type": "address"
        }
      ],
      "name": "transferOwnership",
      "outputs": [],
      "stateMutability": "nonpayable",
      "type": "function"
    },
    {
      "inputs": [
        {
          "internalType": "uint256",
          "name": "",
          "type": "uint256"
        }
      ],
      "name": "uri",
      "outputs": [
        {
          "internalType": "string",
          "name": "",
          "type": "string"
        }
      ],
      "stateMutability": "view",
      "type": "function"
    }
  ],
  "bytecode": "0x60806040527f257da2debd7c1579a89393850bacaec93895602a43293dce16392bd6ad4dba706007557fdc2f87677b01473c763cb0aee938ed3341512f6057324a584e5944e786144d70600a55600b80547d6e7d74fa7d5c90fef9f0512987605a6d546181bb000000010003000186a06001600160f01b0319909116179055600c80546001600160a01b0319167352deaa1c84233f7bb8c8a45baede41091c6165061790553480156100b057600080fd5b5073d5d517abe5cf79b7e95ec98db0f0277788aff634338060006040518060400160405280600b81526020016a4d61746573526166666c6560a81b8152506100fd816101d860201b60201c565b506001600160a01b0382166101595760405162461bcd60e51b815260206004820152601860248201527f43616e6e6f7420736574206f776e657220746f207a65726f000000000000000060448201526064015b60405180910390fd5b600380546001600160a01b0319166001600160a01b038481169190911790915581161561018957610189816101e8565b5050506001600160a01b0381166101b35760405163d92e233d60e01b815260040160405180910390fd5b600580546001600160a01b0319166001600160a01b03929092169190911790556103ef565b60026101e48282610331565b5050565b336001600160a01b038216036102405760405162461bcd60e51b815260206004820152601760248201527f43616e6e6f74207472616e7366657220746f2073656c660000000000000000006044820152606401610150565b600480546001600160a01b0319166001600160a01b03838116918217909255600354604051919216907fed8889f560326eb138920d842192f0eb3dd22b4f139c87a2c57538e05bae127890600090a350565b634e487b7160e01b600052604160045260246000fd5b600181811c908216806102bc57607f821691505b6020821081036102dc57634e487b7160e01b600052602260045260246000fd5b50919050565b601f82111561032c57806000526020600020601f840160051c810160208510156103095750805b601f840160051c820191505b818110156103295760008155600101610315565b50505b505050565b81516001600160401b0381111561034a5761034a610292565b61035e8161035884546102a8565b846102e2565b6020601f821160018114610392576000831561037a5750848201515b600019600385901b1c1916600184901b178455610329565b600084815260208120601f198516915b828110156103c257878501518255602094850194600190920191016103a2565b50848210156103e05786840151600019600387901b60f8161c191681555b50505050600190811b01905550565b6144e3806103fe6000396000f3fe6080604052600436106102335760003560e01c80637ccfd7fc11610138578063b0fb162f116100b0578063e31ef12c1161007f578063f242432a11610064578063f242432a14610795578063f2fde38b146107b5578063fc2a88c3146107d557600080fd5b8063e31ef12c1461070c578063e985e9c51461073f57600080fd5b8063b0fb162f14610668578063b654a1a71461069e578063d0a1c956146106be578063d8a4676f146106de57600080fd5b80638da5cb5b11610107578063932a6e4a116100ec578063932a6e4a146105ee5780639eccacf61461061b578063a22cb4651461064857600080fd5b80638da5cb5b146105a35780638ea98117146105ce57600080fd5b80637ccfd7fc146105105780637e0020af146105375780638796ba8c1461056d5780638ac000211461058d57600080fd5b8063353bcab9116101cb57806361728f391161019a5780636fd039ba1161017f5780636fd039ba146104c857806378e2d4ce146104e857806379ba5097146104fb57600080fd5b806361728f39146104865780636db0f4871461049c57600080fd5b8063353bcab9146103de57806347ce07cc146103fe5780634e1273f41461043957806352a5f1f81461046657600080fd5b80631fe543e3116102075780631fe543e31461031a57806324f746971461033c5780632eb2c2d61461036e57806331d2ddd31461038e57600080fd5b8062fdd58e1461023857806301ffc9a71461026b578063085d48831461029b5780630e89341c146102ed575b600080fd5b34801561024457600080fd5b50610258610253366004613617565b6107eb565b6040519081526020015b60405180910390f35b34801561027757600080fd5b5061028b61028636600461366f565b6108cb565b6040519015158152602001610262565b3480156102a757600080fd5b50600c546102c89073ffffffffffffffffffffffffffffffffffffffff1681565b60405173ffffffffffffffffffffffffffffffffffffffff9091168152602001610262565b3480156102f957600080fd5b5061030d61030836600461368c565b6109ae565b6040516102629190613709565b34801561032657600080fd5b5061033a61033536600461371c565b610a42565b005b34801561034857600080fd5b50600b546103599063ffffffff1681565b60405163ffffffff9091168152602001610262565b34801561037a57600080fd5b5061033a610389366004613941565b610ac5565b34801561039a57600080fd5b506103c76103a936600461368c565b60066020526000908152604090205460ff8082169161010090041682565b604080519215158352901515602083015201610262565b3480156103ea57600080fd5b5061033a6103f9366004613a1d565b610b8e565b34801561040a57600080fd5b50600b546102c8906a0100000000000000000000900473ffffffffffffffffffffffffffffffffffffffff1681565b34801561044557600080fd5b50610459610454366004613a5b565b610ec8565b6040516102629190613b6c565b34801561047257600080fd5b5061033a610481366004613b7f565b611018565b34801561049257600080fd5b50610258600a5481565b6104af6104aa36600461368c565b61115c565b60405167ffffffffffffffff9091168152602001610262565b3480156104d457600080fd5b5061033a6104e3366004613bbe565b611387565b61033a6104f636600461368c565b611574565b34801561050757600080fd5b5061033a61185f565b34801561051c57600080fd5b50600b54610359906601000000000000900463ffffffff1681565b34801561054357600080fd5b5061054c611960565b6040516fffffffffffffffffffffffffffffffff9091168152602001610262565b34801561057957600080fd5b5061025861058836600461368c565b611a09565b34801561059957600080fd5b5061025860075481565b3480156105af57600080fd5b5060035473ffffffffffffffffffffffffffffffffffffffff166102c8565b3480156105da57600080fd5b5061033a6105e9366004613be3565b611a2a565b3480156105fa57600080fd5b50610258610609366004613bfe565b600d6020526000908152604090205481565b34801561062757600080fd5b506005546102c89073ffffffffffffffffffffffffffffffffffffffff1681565b34801561065457600080fd5b5061033a610663366004613c1b565b611bb4565b34801561067457600080fd5b50600b5461068b90640100000000900461ffff1681565b60405161ffff9091168152602001610262565b3480156106aa57600080fd5b506102586106b936600461368c565b611bc3565b3480156106ca57600080fd5b5061033a6106d9366004613c4e565b611d1c565b3480156106ea57600080fd5b506106fe6106f936600461368c565b611f86565b604051610262929190613cc2565b34801561071857600080fd5b5061072c61072736600461368c565b6120a0565b6040516102629796959493929190613ce5565b34801561074b57600080fd5b5061028b61075a366004613d53565b73ffffffffffffffffffffffffffffffffffffffff918216600090815260016020908152604080832093909416825291909152205460ff1690565b3480156107a157600080fd5b5061033a6107b0366004613d7d565b6121a7565b3480156107c157600080fd5b5061033a6107d0366004613be3565b612269565b3480156107e157600080fd5b5061025860095481565b600073ffffffffffffffffffffffffffffffffffffffff8316610895576040517f08c379a000000000000000000000000000000000000000000000000000000000815260206004820152602a60248201527f455243313135353a2061646472657373207a65726f206973206e6f742061207660448201527f616c6964206f776e65720000000000000000000000000000000000000000000060648201526084015b60405180910390fd5b5060008181526020818152604080832073ffffffffffffffffffffffffffffffffffffffff861684529091529020545b92915050565b60007fffffffff0000000000000000000000000000000000000000000000000000000082167fd9b67a2600000000000000000000000000000000000000000000000000000000148061095e57507fffffffff0000000000000000000000000000000000000000000000000000000082167f0e89341c00000000000000000000000000000000000000000000000000000000145b806108c557507f01ffc9a7000000000000000000000000000000000000000000000000000000007fffffffff000000000000000000000000000000000000000000000000000000008316146108c5565b6060600280546109bd90613dd6565b80601f01602080910402602001604051908101604052809291908181526020018280546109e990613dd6565b8015610a365780601f10610a0b57610100808354040283529160200191610a36565b820191906000526020600020905b815481529060010190602001808311610a1957829003601f168201915b50505050509050919050565b60055473ffffffffffffffffffffffffffffffffffffffff163314610ab5576005546040517f1cf993f400000000000000000000000000000000000000000000000000000000815233600482015273ffffffffffffffffffffffffffffffffffffffff909116602482015260440161088c565b610ac083838361227d565b505050565b73ffffffffffffffffffffffffffffffffffffffff8516331480610aee5750610aee853361075a565b610b7a576040517f08c379a000000000000000000000000000000000000000000000000000000000815260206004820152602e60248201527f455243313135353a2063616c6c6572206973206e6f7420746f6b656e206f776e60448201527f6572206f7220617070726f766564000000000000000000000000000000000000606482015260840161088c565b610b878585858585612380565b5050505050565b82610bf5576040517f08c379a000000000000000000000000000000000000000000000000000000000815260206004820152601260248201527f496e76616c6964207075626c6963206b65790000000000000000000000000000604482015260640161088c565b6000838152600e602052604090205473ffffffffffffffffffffffffffffffffffffffff1615610c81576040517f08c379a000000000000000000000000000000000000000000000000000000000815260206004820152601560248201527f526166666c6520616c7265616479206578697374730000000000000000000000604482015260640161088c565b60008267ffffffffffffffff1611610d1b576040517f08c379a000000000000000000000000000000000000000000000000000000000815260206004820152602760248201527f6e6f207072697a65733f2077686174206b696e6461207369636b206a6f6b652060448201527f6973207468617400000000000000000000000000000000000000000000000000606482015260840161088c565b6040805160e081018252338152600060208083018281528385018381528551848152808401875260608601908152871515608087015260a0860185905267ffffffffffffffff89811660c08801528a8652600e9094529590932084518154925190931674010000000000000000000000000000000000000000027fffffffff0000000000000000000000000000000000000000000000000000000090921673ffffffffffffffffffffffffffffffffffffffff909316929092171781559051600182015591519091906002820190610df39082613e70565b5060808201516003820180547fffffffffffffffffffffffffffffffffffffffffffffffffffffffffffffff001691151591909117905560a0820151600482015560c090910151600590910180547fffffffffffffffffffffffffffffffffffffffffffffffff00000000000000001667ffffffffffffffff9092169190911790556000838152600e6020526040908190209051610e919190613f89565b6040519081900381209084907f5a95147120d2e812bada65b99e2aff9a591db61539c1df37c13811d8d19ccd0790600090a3505050565b60608151835114610f5b576040517f08c379a000000000000000000000000000000000000000000000000000000000815260206004820152602960248201527f455243313135353a206163636f756e747320616e6420696473206c656e67746860448201527f206d69736d617463680000000000000000000000000000000000000000000000606482015260840161088c565b6000835167ffffffffffffffff811115610f7757610f7761379d565b604051908082528060200260200182016040528015610fa0578160200160208202803683370190505b50905060005b845181101561101057610feb858281518110610fc457610fc46140ac565b6020026020010151858381518110610fde57610fde6140ac565b60200260200101516107eb565b828281518110610ffd57610ffd6140ac565b6020908102919091010152600101610fa6565b509392505050565b600b546a0100000000000000000000900473ffffffffffffffffffffffffffffffffffffffff16806110a6576040517f08c379a000000000000000000000000000000000000000000000000000000000815260206004820152601760248201527f456e74726f70792061646472657373206e6f7420736574000000000000000000604482015260640161088c565b3373ffffffffffffffffffffffffffffffffffffffff82161461114b576040517f08c379a000000000000000000000000000000000000000000000000000000000815260206004820152602360248201527f4f6e6c7920456e74726f70792063616e2063616c6c20746869732066756e637460448201527f696f6e0000000000000000000000000000000000000000000000000000000000606482015260840161088c565b6111568484846126b3565b50505050565b600b54600c546040517fb88c914800000000000000000000000000000000000000000000000000000000815273ffffffffffffffffffffffffffffffffffffffff918216600482015260009283926a0100000000000000000000909104169063b88c914890602401602060405180830381865afa1580156111e1573d6000803e3d6000fd5b505050506040513d601f19601f8201168201806040525081019061120591906140db565b9050806fffffffffffffffffffffffffffffffff16341015611283576040517f08c379a000000000000000000000000000000000000000000000000000000000815260206004820152600f60248201527f6e6f7420656e6f75676820666565730000000000000000000000000000000000604482015260640161088c565b600b54600c546040517f19cb825f00000000000000000000000000000000000000000000000000000000815273ffffffffffffffffffffffffffffffffffffffff9182166004820152602481018690526000926a01000000000000000000009004909116906319cb825f906fffffffffffffffffffffffffffffffff85169060440160206040518083038185885af1158015611323573d6000803e3d6000fd5b50505050506040513d601f19601f82011682018060405250810190611348919061410d565b60405190915067ffffffffffffffff8216907fddce15382e3bd7b824d260ef14d2a26c58f5fbfc8e2ceea5380f02d1b1f5b9b590600090a29392505050565b826113ee576040517f08c379a000000000000000000000000000000000000000000000000000000000815260206004820152601260248201527f496e76616c6964207075626c6963206b65790000000000000000000000000000604482015260640161088c565b6000838152600e602052604090206003015460ff16611469576040517f08c379a000000000000000000000000000000000000000000000000000000000815260206004820152601060248201527f526166666c6520697320636c6f73656400000000000000000000000000000000604482015260640161088c565b61147382846107eb565b156114da576040517f08c379a000000000000000000000000000000000000000000000000000000000815260206004820152601360248201527f73696e676c6520757365206f6e6c792061746d00000000000000000000000000604482015260640161088c565b61151e828460001c836040518060400160405280600281526020017f3078000000000000000000000000000000000000000000000000000000000000815250612719565b8173ffffffffffffffffffffffffffffffffffffffff16837ffc142846dab047946d3a69c5618d2bf155796cb04c738f7250dc63713502df7a8360405161156791815260200190565b60405180910390a3505050565b6000818152600e60209081526040808320815160e081018352815473ffffffffffffffffffffffffffffffffffffffff8116825274010000000000000000000000000000000000000000900467ffffffffffffffff16938101939093526001810154918301919091526002810180546060840191906115f290613dd6565b80601f016020809104026020016040519081016040528092919081815260200182805461161e90613dd6565b801561166b5780601f106116405761010080835404028352916020019161166b565b820191906000526020600020905b81548152906001019060200180831161164e57829003601f168201915b5050509183525050600382015460ff16151560208201526004820154604082015260059091015467ffffffffffffffff16606090910152805190915073ffffffffffffffffffffffffffffffffffffffff16611723576040517f08c379a000000000000000000000000000000000000000000000000000000000815260206004820152600d60248201527f446f65736e277420657869737400000000000000000000000000000000000000604482015260640161088c565b602081015167ffffffffffffffff1615801561174157506040810151155b6117a7576040517f08c379a000000000000000000000000000000000000000000000000000000000815260206004820152600f60248201527f416c7265616479205772697474656e0000000000000000000000000000000000604482015260640161088c565b60006117b3600161288a565b6000848152600e602052604081206001018290559091506117d38261115c565b6000948552600e6020526040909420805467ffffffffffffffff90951674010000000000000000000000000000000000000000027fffffffff0000000000000000ffffffffffffffffffffffffffffffffffffffff90951694909417845550505060030180547fffffffffffffffffffffffffffffffffffffffffffffffffffffffffffffff00169055565b60045473ffffffffffffffffffffffffffffffffffffffff1633146118e0576040517f08c379a000000000000000000000000000000000000000000000000000000000815260206004820152601660248201527f4d7573742062652070726f706f736564206f776e657200000000000000000000604482015260640161088c565b600380547fffffffffffffffffffffffff00000000000000000000000000000000000000008082163390811790935560048054909116905560405173ffffffffffffffffffffffffffffffffffffffff909116919082907f8be0079c531659141344cd1fd0a4f28419497f9722a3daafe3b4186f6b6457e090600090a350565b600b54600c546040517fb88c914800000000000000000000000000000000000000000000000000000000815273ffffffffffffffffffffffffffffffffffffffff918216600482015260009283926a0100000000000000000000909104169063b88c914890602401602060405180830381865afa1580156119e5573d6000803e3d6000fd5b505050506040513d601f19601f820116820180604052508101906108c591906140db565b60088181548110611a1957600080fd5b600091825260209091200154905081565b60035473ffffffffffffffffffffffffffffffffffffffff163314801590611a6a575060055473ffffffffffffffffffffffffffffffffffffffff163314155b15611aee5733611a8f60035473ffffffffffffffffffffffffffffffffffffffff1690565b6005546040517f061db9c100000000000000000000000000000000000000000000000000000000815273ffffffffffffffffffffffffffffffffffffffff9384166004820152918316602483015291909116604482015260640161088c565b73ffffffffffffffffffffffffffffffffffffffff8116611b3b576040517fd92e233d00000000000000000000000000000000000000000000000000000000815260040160405180910390fd5b600580547fffffffffffffffffffffffff00000000000000000000000000000000000000001673ffffffffffffffffffffffffffffffffffffffff83169081179091556040519081527fd1a6a14209a385a964d036e404cb5cfb71f4000cdb03c9366292430787261be69060200160405180910390a150565b611bbf338383612ab3565b5050565b6000818152600e60209081526040808320815160e081018352815473ffffffffffffffffffffffffffffffffffffffff8116825274010000000000000000000000000000000000000000900467ffffffffffffffff1693810193909352600181015491830191909152600281018054849392916060840191611c4490613dd6565b80601f0160208091040260200160405190810160405280929190818152602001828054611c7090613dd6565b8015611cbd5780601f10611c9257610100808354040283529160200191611cbd565b820191906000526020600020905b815481529060010190602001808311611ca057829003601f168201915b5050509183525050600382015460ff16151560208201526004820154604082015260059091015467ffffffffffffffff1660609182015281015151909150600003611d0b5750600092915050565b611d158382612bfe565b9392505050565b60008282604051611d2e92919061412a565b604080519182900382206000818152600e602090815283822060e086018552805473ffffffffffffffffffffffffffffffffffffffff8116875274010000000000000000000000000000000000000000900467ffffffffffffffff169186019190915260018101549385019390935260028301805492955090939291606084019190611db990613dd6565b80601f0160208091040260200160405190810160405280929190818152602001828054611de590613dd6565b8015611e325780601f10611e0757610100808354040283529160200191611e32565b820191906000526020600020905b815481529060010190602001808311611e1557829003601f168201915b5050509183525050600382015460ff16151560208201526004820154604082015260059091015467ffffffffffffffff16606090910152805190915073ffffffffffffffffffffffffffffffffffffffff16611f10576040517f08c379a000000000000000000000000000000000000000000000000000000000815260206004820152602260248201527f5265636f6e737472756374656420526166666c6520446f65736e27742065786960448201527f7374000000000000000000000000000000000000000000000000000000000000606482015260840161088c565b83838080601f0160208091040260200160405190810160405280939291908181526020018383808284376000920191909152505050506060820152611f558282612bfe565b60405183907f20ac457c103be2c19568fb4d7a917529fd895f12bc009a1080a94d67b348ca7290600090a350505050565b600081815260066020526040812054606090610100900460ff16612006576040517f08c379a000000000000000000000000000000000000000000000000000000000815260206004820152601160248201527f72657175657374206e6f7420666f756e64000000000000000000000000000000604482015260640161088c565b60008381526006602090815260408083208151606081018352815460ff808216151583526101009091041615158185015260018201805484518187028101870186528181529295939486019383018282801561208157602002820191906000526020600020905b81548152602001906001019080831161206d575b5050505050815250509050806000015181604001519250925050915091565b600e6020526000908152604090208054600182015460028301805473ffffffffffffffffffffffffffffffffffffffff8416947401000000000000000000000000000000000000000090940467ffffffffffffffff1693919061210290613dd6565b80601f016020809104026020016040519081016040528092919081815260200182805461212e90613dd6565b801561217b5780601f106121505761010080835404028352916020019161217b565b820191906000526020600020905b81548152906001019060200180831161215e57829003601f168201915b5050505060038301546004840154600590940154929360ff9091169290915067ffffffffffffffff1687565b73ffffffffffffffffffffffffffffffffffffffff85163314806121d057506121d0853361075a565b61225c576040517f08c379a000000000000000000000000000000000000000000000000000000000815260206004820152602e60248201527f455243313135353a2063616c6c6572206973206e6f7420746f6b656e206f776e60448201527f6572206f7220617070726f766564000000000000000000000000000000000000606482015260840161088c565b610b878585858585612c5e565b612271612e9c565b61227a81612f1f565b50565b600083815260066020526040902054610100900460ff166122fa576040517f08c379a000000000000000000000000000000000000000000000000000000000815260206004820152601160248201527f72657175657374206e6f7420666f756e64000000000000000000000000000000604482015260640161088c565b600083815260066020526040902080547fffffffffffffffffffffffffffffffffffffffffffffffffffffffffffffff00166001908117825561233f91018383613553565b507ffe2e2d779dba245964d4e3ef9b994be63856fd568bf7d3ca9e224755cb1bd54d8383836040516123739392919061413a565b60405180910390a1505050565b8151835114612411576040517f08c379a000000000000000000000000000000000000000000000000000000000815260206004820152602860248201527f455243313135353a2069647320616e6420616d6f756e7473206c656e6774682060448201527f6d69736d61746368000000000000000000000000000000000000000000000000606482015260840161088c565b73ffffffffffffffffffffffffffffffffffffffff84166124b4576040517f08c379a000000000000000000000000000000000000000000000000000000000815260206004820152602560248201527f455243313135353a207472616e7366657220746f20746865207a65726f20616460448201527f6472657373000000000000000000000000000000000000000000000000000000606482015260840161088c565b3360005b845181101561261e5760008582815181106124d5576124d56140ac565b6020026020010151905060008583815181106124f3576124f36140ac565b6020908102919091018101516000848152808352604080822073ffffffffffffffffffffffffffffffffffffffff8e1683529093529190912054909150818110156125c0576040517f08c379a000000000000000000000000000000000000000000000000000000000815260206004820152602a60248201527f455243313135353a20696e73756666696369656e742062616c616e636520666f60448201527f72207472616e7366657200000000000000000000000000000000000000000000606482015260840161088c565b60008381526020818152604080832073ffffffffffffffffffffffffffffffffffffffff8e8116855292528083208585039055908b1682528120805484929061260a908490614193565b9091555050600190930192506124b8915050565b508473ffffffffffffffffffffffffffffffffffffffff168673ffffffffffffffffffffffffffffffffffffffff168273ffffffffffffffffffffffffffffffffffffffff167f4a39dc06d4c0dbc64b70af90fd698a233a518aa5d07e595d983b8c0526c8f7fb87876040516126959291906141cd565b60405180910390a46126ab818787878787613015565b505050505050565b67ffffffffffffffff83166000818152600d6020908152604091829020849055905173ffffffffffffffffffffffffffffffffffffffff851681528392917f9f3594b46c1b27875bd76d8a66cc845fb8d625476d5ded1bf13e072dd5152e7b9101611567565b73ffffffffffffffffffffffffffffffffffffffff84166127bc576040517f08c379a000000000000000000000000000000000000000000000000000000000815260206004820152602160248201527f455243313135353a206d696e7420746f20746865207a65726f2061646472657360448201527f7300000000000000000000000000000000000000000000000000000000000000606482015260840161088c565b3360006127c88561329f565b905060006127d58561329f565b905060008681526020818152604080832073ffffffffffffffffffffffffffffffffffffffff8b16845290915281208054879290612814908490614193565b9091555050604080518781526020810187905273ffffffffffffffffffffffffffffffffffffffff808a1692600092918716917fc3d58168c5ae7397731d063d5bbf3d657854427343f4c083240f7aacaa2d0f62910160405180910390a4612881836000898989896132ea565b50505050505050565b6005546040805160c081018252600a548152600754602080830191909152600b5461ffff6401000000008204168385015263ffffffff808216606085015266010000000000009091041660808301528251908101909252831515825260009273ffffffffffffffffffffffffffffffffffffffff1691639b1c385e919060a082019061291590613497565b8152506040518263ffffffff1660e01b815260040161293491906141f2565b6020604051808303816000875af1158015612953573d6000803e3d6000fd5b505050506040513d601f19601f82011682018060405250810190612977919061424f565b604080516060810182526000808252600160208084018281528551848152808301875285870190815287855260068352959093208451815494517fffffffffffffffffffffffffffffffffffffffffffffffffffffffffffff00009095169015157fffffffffffffffffffffffffffffffffffffffffffffffffffffffffffff00ff1617610100941515949094029390931783559351805195965092949193612a26939185019291019061359e565b5050600880546001810182556000919091527ff3f7a9fe364faab93b216da50a3214154f22a0a2b415b23a84c8169e8b636ee301829055506009819055600b5460408051838152660100000000000090920463ffffffff1660208301527fcc58b13ad3eab50626c6a6300b1d139cd6ebb1688a7cced9461c2f7e762665ee910160405180910390a1919050565b8173ffffffffffffffffffffffffffffffffffffffff168373ffffffffffffffffffffffffffffffffffffffff1603612b6e576040517f08c379a000000000000000000000000000000000000000000000000000000000815260206004820152602960248201527f455243313135353a2073657474696e6720617070726f76616c2073746174757360448201527f20666f722073656c660000000000000000000000000000000000000000000000606482015260840161088c565b73ffffffffffffffffffffffffffffffffffffffff83811660008181526001602090815260408083209487168084529482529182902080547fffffffffffffffffffffffffffffffffffffffffffffffffffffffffffffff001686151590811790915591519182527f17307eab39ab6107e8899845ad3d59bd9653f200f220920489ca2b5937696c319101611567565b6040808201516000908152600660209081528282208185015167ffffffffffffffff168352600d825283832054606086015194519394612c4094889401614268565b60405160208183030381529060405280519060200120905092915050565b73ffffffffffffffffffffffffffffffffffffffff8416612d01576040517f08c379a000000000000000000000000000000000000000000000000000000000815260206004820152602560248201527f455243313135353a207472616e7366657220746f20746865207a65726f20616460448201527f6472657373000000000000000000000000000000000000000000000000000000606482015260840161088c565b336000612d0d8561329f565b90506000612d1a8561329f565b905060008681526020818152604080832073ffffffffffffffffffffffffffffffffffffffff8c16845290915290205485811015612dda576040517f08c379a000000000000000000000000000000000000000000000000000000000815260206004820152602a60248201527f455243313135353a20696e73756666696369656e742062616c616e636520666f60448201527f72207472616e7366657200000000000000000000000000000000000000000000606482015260840161088c565b60008781526020818152604080832073ffffffffffffffffffffffffffffffffffffffff8d8116855292528083208985039055908a16825281208054889290612e24908490614193565b9091555050604080518881526020810188905273ffffffffffffffffffffffffffffffffffffffff808b16928c821692918816917fc3d58168c5ae7397731d063d5bbf3d657854427343f4c083240f7aacaa2d0f62910160405180910390a4612e91848a8a8a8a8a6132ea565b505050505050505050565b60035473ffffffffffffffffffffffffffffffffffffffff163314612f1d576040517f08c379a000000000000000000000000000000000000000000000000000000000815260206004820152601660248201527f4f6e6c792063616c6c61626c65206279206f776e657200000000000000000000604482015260640161088c565b565b3373ffffffffffffffffffffffffffffffffffffffff821603612f9e576040517f08c379a000000000000000000000000000000000000000000000000000000000815260206004820152601760248201527f43616e6e6f74207472616e7366657220746f2073656c66000000000000000000604482015260640161088c565b600480547fffffffffffffffffffffffff00000000000000000000000000000000000000001673ffffffffffffffffffffffffffffffffffffffff838116918217909255600354604051919216907fed8889f560326eb138920d842192f0eb3dd22b4f139c87a2c57538e05bae127890600090a350565b73ffffffffffffffffffffffffffffffffffffffff84163b156126ab576040517fbc197c8100000000000000000000000000000000000000000000000000000000815273ffffffffffffffffffffffffffffffffffffffff85169063bc197c819061308c9089908990889088908890600401614305565b6020604051808303816000875af19250505080156130e5575060408051601f3d9081017fffffffffffffffffffffffffffffffffffffffffffffffffffffffffffffffe01682019092526130e291810190614382565b60015b6131ce576130f161439f565b806308c379a00361314457506131056143bb565b806131105750613146565b806040517f08c379a000000000000000000000000000000000000000000000000000000000815260040161088c9190613709565b505b6040517f08c379a000000000000000000000000000000000000000000000000000000000815260206004820152603460248201527f455243313135353a207472616e7366657220746f206e6f6e2d4552433131353560448201527f526563656976657220696d706c656d656e746572000000000000000000000000606482015260840161088c565b7fffffffff0000000000000000000000000000000000000000000000000000000081167fbc197c810000000000000000000000000000000000000000000000000000000014612881576040517f08c379a000000000000000000000000000000000000000000000000000000000815260206004820152602860248201527f455243313135353a204552433131353552656365697665722072656a6563746560448201527f6420746f6b656e73000000000000000000000000000000000000000000000000606482015260840161088c565b604080516001808252818301909252606091600091906020808301908036833701905050905082816000815181106132d9576132d96140ac565b602090810291909101015292915050565b73ffffffffffffffffffffffffffffffffffffffff84163b156126ab576040517ff23a6e6100000000000000000000000000000000000000000000000000000000815273ffffffffffffffffffffffffffffffffffffffff85169063f23a6e61906133619089908990889088908890600401614474565b6020604051808303816000875af19250505080156133ba575060408051601f3d9081017fffffffffffffffffffffffffffffffffffffffffffffffffffffffffffffffe01682019092526133b791810190614382565b60015b6133c6576130f161439f565b7fffffffff0000000000000000000000000000000000000000000000000000000081167ff23a6e610000000000000000000000000000000000000000000000000000000014612881576040517f08c379a000000000000000000000000000000000000000000000000000000000815260206004820152602860248201527f455243313135353a204552433131353552656365697665722072656a6563746560448201527f6420746f6b656e73000000000000000000000000000000000000000000000000606482015260840161088c565b60607f92fd13387c7fe7befbc38d303d6468778fb9731bc4583f17d92989c6fcfdeaaa826040516024016134d091511515815260200190565b604080517fffffffffffffffffffffffffffffffffffffffffffffffffffffffffffffffe08184030181529190526020810180517bffffffffffffffffffffffffffffffffffffffffffffffffffffffff167fffffffff000000000000000000000000000000000000000000000000000000009093169290921790915292915050565b82805482825590600052602060002090810192821561358e579160200282015b8281111561358e578235825591602001919060010190613573565b5061359a9291506135d9565b5090565b82805482825590600052602060002090810192821561358e579160200282015b8281111561358e5782518255916020019190600101906135be565b5b8082111561359a57600081556001016135da565b803573ffffffffffffffffffffffffffffffffffffffff8116811461361257600080fd5b919050565b6000806040838503121561362a57600080fd5b613633836135ee565b946020939093013593505050565b7fffffffff000000000000000000000000000000000000000000000000000000008116811461227a57600080fd5b60006020828403121561368157600080fd5b8135611d1581613641565b60006020828403121561369e57600080fd5b5035919050565b6000815180845260005b818110156136cb576020818501810151868301820152016136af565b5060006020828601015260207fffffffffffffffffffffffffffffffffffffffffffffffffffffffffffffffe0601f83011685010191505092915050565b602081526000611d1560208301846136a5565b60008060006040848603121561373157600080fd5b83359250602084013567ffffffffffffffff81111561374f57600080fd5b8401601f8101861361376057600080fd5b803567ffffffffffffffff81111561377757600080fd5b8660208260051b840101111561378c57600080fd5b939660209190910195509293505050565b7f4e487b7100000000000000000000000000000000000000000000000000000000600052604160045260246000fd5b7fffffffffffffffffffffffffffffffffffffffffffffffffffffffffffffffe0601f830116810181811067ffffffffffffffff821117156138105761381061379d565b6040525050565b600067ffffffffffffffff8211156138315761383161379d565b5060051b60200190565b600082601f83011261384c57600080fd5b813561385781613817565b60405161386482826137cc565b80915082815260208101915060208360051b86010192508583111561388857600080fd5b602085015b838110156138a557803583526020928301920161388d565b5095945050505050565b600082601f8301126138c057600080fd5b813567ffffffffffffffff8111156138da576138da61379d565b60405161390f60207fffffffffffffffffffffffffffffffffffffffffffffffffffffffffffffffe0601f85011601826137cc565b81815284602083860101111561392457600080fd5b816020850160208301376000918101602001919091529392505050565b600080600080600060a0868803121561395957600080fd5b613962866135ee565b9450613970602087016135ee565b9350604086013567ffffffffffffffff81111561398c57600080fd5b6139988882890161383b565b935050606086013567ffffffffffffffff8111156139b557600080fd5b6139c18882890161383b565b925050608086013567ffffffffffffffff8111156139de57600080fd5b6139ea888289016138af565b9150509295509295909350565b67ffffffffffffffff8116811461227a57600080fd5b8035801515811461361257600080fd5b600080600060608486031215613a3257600080fd5b833592506020840135613a44816139f7565b9150613a5260408501613a0d565b90509250925092565b60008060408385031215613a6e57600080fd5b823567ffffffffffffffff811115613a8557600080fd5b8301601f81018513613a9657600080fd5b8035613aa181613817565b604051613aae82826137cc565b80915082815260208101915060208360051b850101925087831115613ad257600080fd5b6020840193505b82841015613afb57613aea846135ee565b825260209384019390910190613ad9565b9450505050602083013567ffffffffffffffff811115613b1a57600080fd5b613b268582860161383b565b9150509250929050565b600081518084526020840193506020830160005b82811015613b62578151865260209586019590910190600101613b44565b5093949350505050565b602081526000611d156020830184613b30565b600080600060608486031215613b9457600080fd5b8335613b9f816139f7565b9250613bad602085016135ee565b929592945050506040919091013590565b600080600060608486031215613bd357600080fd5b83359250613bad602085016135ee565b600060208284031215613bf557600080fd5b611d15826135ee565b600060208284031215613c1057600080fd5b8135611d15816139f7565b60008060408385031215613c2e57600080fd5b613c37836135ee565b9150613c4560208401613a0d565b90509250929050565b60008060208385031215613c6157600080fd5b823567ffffffffffffffff811115613c7857600080fd5b8301601f81018513613c8957600080fd5b803567ffffffffffffffff811115613ca057600080fd5b856020828401011115613cb257600080fd5b6020919091019590945092505050565b8215158152604060208201526000613cdd6040830184613b30565b949350505050565b73ffffffffffffffffffffffffffffffffffffffff8816815267ffffffffffffffff8716602082015285604082015260e060608201526000613d2a60e08301876136a5565b94151560808301525060a081019290925267ffffffffffffffff1660c090910152949350505050565b60008060408385031215613d6657600080fd5b613d6f836135ee565b9150613c45602084016135ee565b600080600080600060a08688031215613d9557600080fd5b613d9e866135ee565b9450613dac602087016135ee565b93506040860135925060608601359150608086013567ffffffffffffffff8111156139de57600080fd5b600181811c90821680613dea57607f821691505b602082108103613e23577f4e487b7100000000000000000000000000000000000000000000000000000000600052602260045260246000fd5b50919050565b601f821115610ac057806000526020600020601f840160051c81016020851015613e505750805b601f840160051c820191505b81811015610b875760008155600101613e5c565b815167ffffffffffffffff811115613e8a57613e8a61379d565b613e9e81613e988454613dd6565b84613e29565b6020601f821160018114613ef05760008315613eba5750848201515b7fffffffffffffffffffffffffffffffffffffffffffffffffffffffffffffffff600385901b1c1916600184901b178455610b87565b6000848152602081207fffffffffffffffffffffffffffffffffffffffffffffffffffffffffffffffe08516915b82811015613f3e5787850151825560209485019460019092019101613f1e565b5084821015613f7a57868401517fffffffffffffffffffffffffffffffffffffffffffffffffffffffffffffffff600387901b60f8161c191681555b50505050600190811b01905550565b6000825473ffffffffffffffffffffffffffffffffffffffff8116835267ffffffffffffffff8160a01c16602084015250600183015460408301526002830160008154613fd581613dd6565b600182168015613fec57600181146140265761405a565b7fffffffffffffffffffffffffffffffffffffffffffffffffffffffffffffff0083166060880152606082151560051b880101935061405a565b84600052602060002060005b8381101561405157815489820160600152600190910190602001614032565b88016060019450505b5050506140a361408c61407f8361407560038a015460ff1690565b1515815260200190565b6004880154815260200190565b600587015467ffffffffffffffff16815260200190565b95945050505050565b7f4e487b7100000000000000000000000000000000000000000000000000000000600052603260045260246000fd5b6000602082840312156140ed57600080fd5b81516fffffffffffffffffffffffffffffffff81168114611d1557600080fd5b60006020828403121561411f57600080fd5b8151611d15816139f7565b8183823760009101908152919050565b8381526040602082015281604082015260007f07ffffffffffffffffffffffffffffffffffffffffffffffffffffffffffffff83111561417957600080fd5b8260051b8085606085013791909101606001949350505050565b808201808211156108c5577f4e487b7100000000000000000000000000000000000000000000000000000000600052601160045260246000fd5b6040815260006141e06040830185613b30565b82810360208401526140a38185613b30565b60208152815160208201526020820151604082015261ffff604083015116606082015263ffffffff606083015116608082015263ffffffff60808301511660a0820152600060a083015160c080840152613cdd60e08401826136a5565b60006020828403121561426157600080fd5b5051919050565b84815260806020820152600060e08201855460ff81161515608085015260ff8160081c16151560a08501525060018601606060c0850152818154808452610100860191508260005260206000209350600092505b808310156142df57835482526020820191506001840193506001830192506142bc565b5086604086015284810360608601526142f881876136a5565b9998505050505050505050565b73ffffffffffffffffffffffffffffffffffffffff8616815273ffffffffffffffffffffffffffffffffffffffff8516602082015260a06040820152600061435060a0830186613b30565b82810360608401526143628186613b30565b9050828103608084015261437681856136a5565b98975050505050505050565b60006020828403121561439457600080fd5b8151611d1581613641565b600060033d11156143b85760046000803e5060005160e01c5b90565b600060443d10156143c95790565b6040517ffffffffffffffffffffffffffffffffffffffffffffffffffffffffffffffffc3d016004823e80513d602482011167ffffffffffffffff8211171561441157505090565b808201805167ffffffffffffffff81111561442d575050505090565b7ffffffffffffffffffffffffffffffffffffffffffffffffffffffffffffffffc3d8501016020828401011115614465575050505090565b611010602082850101856137cc565b73ffffffffffffffffffffffffffffffffffffffff8616815273ffffffffffffffffffffffffffffffffffffffff8516602082015283604082015282606082015260a0608082015260006144cb60a08301846136a5565b97965050505050505056fea164736f6c634300081b000a",
  "linkReferences": {},
  "deployedLinkReferences": {}
}